:020000040800F2
:1000000000500020151B0008A51A0008AB1A0008B4
:10001000B11A0008B71A0008BD1A00080000000055
:10002000000000000000000000000000C31A0008EB
:10003000CF1A000800000000DB1A0008E71A0008C9
:100040005D1B00085D1B00085D1B00085D1B0008B0
:100050005D1B00085D1B00085D1B00085D1B0008A0
:100060005D1B00085D1B00085D1B00085D1B000890
:10007000F51A00085D1B00085D1B00085D1B0008E9
:100080005D1B00085D1B00085D1B00085D1B000870
:100090005D1B00085D1B00085D1B00085D1B000860
:1000A0005D1B00085D1B00085D1B00085D1B000850
:1000B0005D1B00085D1B00085D1B00085D1B000840
:1000C0005D1B00085D1B00085D1B00085D1B000830
:1000D0005D1B00085D1B00085D1B00085D1B000820
:1000E0005D1B00085D1B00085D1B00080000000090
:1000F0000000000000000000000000000000000000
:0C01000000000000000000005FF808F1A3
:1001100010B5054C237833B9044B13B10448AFF341
:1001200000800123237010BD0C000020000000009F
:10013000305C000808B5034B1BB103490348AFF31B
:10014000008008BD0000000010000020305C0008A6
:1001500081F0004102E000BF83F0004330B54FEA78
:1001600041044FEA430594EA050F08BF90EA020FE5
:100170001FBF54EA000C55EA020C7FEA645C7FEA78
:10018000655C00F0E2804FEA5454D4EB5555B8BF9B
:100190006D420CDD2C4480EA020281EA030382EA0C
:1001A000000083EA010180EA020281EA0303362D9E
:1001B00088BF30BD11F0004F4FEA01314FF4801C71
:1001C0004CEA113102D0404261EB410113F0004F83
:1001D0004FEA03334CEA133302D0524263EB43033A
:1001E00094EA050F00F0A780A4F10104D5F1200ED8
:1001F0000DDB02FA0EFC22FA05F2801841F1000133
:1002000003FA0EF2801843FA05F359410EE0A5F106
:1002100020050EF1200E012A03FA0EFC28BF4CF037
:10022000020C43FA05F3C01851EBE37101F00045ED
:1002300007D54FF0000EDCF1000C7EEB00006EEBFA
:100240000101B1F5801F1BD3B1F5001F0CD3490884
:100250005FEA30004FEA3C0C04F101044FEA4452DB
:1002600012F5800F80F09A80BCF1004F08BF5FEA62
:10027000500C50F1000041EB045141EA050130BD42
:100280005FEA4C0C404141EB0101013C28BFB1F554
:10029000801FE9D291F0000F04BF01460020B1FA9F
:1002A00081F308BF2033A3F10B03B3F120020CDA72
:1002B0000C3208DD02F1140CC2F10C0201FA0CF050
:1002C00021FA02F10CE002F11402D8BFC2F1200CB5
:1002D00001FA02F120FA0CFCDCBF41EA0C0190406B
:1002E000E41AA2BF01EB0451294330BD6FEA0404B4
:1002F0001F3C1CDA0C340EDC04F11404C4F120029F
:1003000020FA04F001FA02F340EA030021FA04F3B0
:1003100045EA030130BDC4F10C04C4F1200220FA07
:1003200002F001FA04F340EA0300294630BD21FA45
:1003300004F0294630BD94F0000F83F4801306BF0B
:1003400081F480110134013D4EE77FEA645C18BFFF
:100350007FEA655C29D094EA050F08BF90EA020F96
:1003600005D054EA000C04BF1946104630BD91EA8E
:10037000030F1EBF0021002030BD5FEA545C05D191
:100380004000494128BF41F0004130BD14F58004D0
:100390003CBF01F5801130BD01F0004545F0FE4144
:1003A00041F470014FF0000030BD7FEA645C1ABF79
:1003B000194610467FEA655C1CBF0B46024650EAB0
:1003C000013406BF52EA033591EA030F41F40021DC
:1003D00030BD00BF90F0000F04BF0021704730B562
:1003E0004FF4806404F132044FF000054FF0000137
:1003F00050E700BF90F0000F04BF0021704730B5F8
:100400004FF4806404F1320410F0004548BF4042CC
:100410004FF000013EE700BF42004FEAE2014FEA21
:1004200031014FEA02701FBF12F07F4393F07F4FFC
:1004300081F06051704732F07F4208BF704793F0FF
:100440007F4F04BF41F40021704730B54FF4607412
:1004500001F0004521F000411CE700BF50EA010215
:1004600008BF704730B54FF000050AE050EA0102BE
:1004700008BF704730B511F0004502D5404261EB2E
:1004800041014FF4806404F132045FEA915C3FF46F
:10049000D8AE4FF003025FEADC0C18BF03325FEA0C
:1004A000DC0C18BF033202EBDC02C2F1200300FABD
:1004B00003FC20FA02F001FA03FE40EA0E0021FAE2
:1004C00002F11444BDE600BF70B54FF0FF0C4CF4D0
:1004D000E06C1CEA11541DBF1CEA135594EA0C0F82
:1004E00095EA0C0F00F0DEF82C4481EA030621EABD
:1004F0004C5123EA4C5350EA013518BF52EA0335F8
:1005000041F4801143F4801338D0A0FB02CE4FF0A9
:100510000005E1FB02E506F00042E0FB03E54FF0D9
:100520000006E1FB03569CF0000F18BF4EF0010ED1
:10053000A4F1FF04B6F5007F64F5407404D25FEACD
:100540004E0E6D4146EB060642EAC62141EA555180
:100550004FEAC52040EA5E504FEACE2EB4F1FD0CC2
:1005600088BFBCF5E06F1ED8BEF1004F08BF5FEA40
:10057000500E50F1000041EB045170BD06F00046F2
:1005800046EA010140EA020081EA0301B4EB5C049F
:10059000C2BFD4EB0C0541EA045170BD41F4801197
:1005A0004FF0000E013C00F3AB8014F1360FDEBFBC
:1005B000002001F0004170BDC4F10004203C35DA98
:1005C0000C341BDC04F11404C4F1200500FA05F31B
:1005D00020FA04F001FA05F240EA020001F00042BC
:1005E00021F0004110EBD37021FA04F642EB060132
:1005F0005EEA430E08BF20EAD37070BDC4F10C045C
:10060000C4F1200500FA04F320FA05F001FA04F21F
:1006100040EA020001F0004110EBD37041F100010B
:100620005EEA430E08BF20EAD37070BDC4F1200516
:1006300000FA05F24EEA020E20FA04F301FA05F27E
:1006400043EA020321FA04F001F0004121FA04F226
:1006500020EA020000EBD3705EEA430E08BF20EAF6
:10066000D37070BD94F0000F0FD101F00046400030
:1006700041EB010111F4801F08BF013CF7D041EAB2
:10068000060195F0000F18BF704703F000465200B6
:1006900043EB030313F4801F08BF013DF7D043EA87
:1006A0000603704794EA0C0F0CEA135518BF95EA3D
:1006B0000C0F0CD050EA410618BF52EA4306D1D1C4
:1006C00081EA030101F000414FF0000070BD50EAE3
:1006D000410606BF1046194652EA430619D094EA6D
:1006E0000C0F02D150EA013613D195EA0C0F05D157
:1006F00052EA03361CBF104619460AD181EA0301AB
:1007000001F0004141F0FE4141F470014FF0000062
:1007100070BD41F0FE4141F4780170BD70B54FF0FD
:10072000FF0C4CF4E06C1CEA11541DBF1CEA13557D
:1007300094EA0C0F95EA0C0F00F0A7F8A4EB05045F
:1007400081EA030E52EA03354FEA013100F0888056
:100750004FEA03334FF0805545EA131343EA12631F
:100760004FEA022245EA111545EA10654FEA0026D4
:100770000EF000419D4208BF964244F1FD0404F58D
:10078000407402D25B084FEA3202B61A65EB0305E9
:100790005B084FEA32024FF480104FF4002CB6EBA6
:1007A000020E75EB030E22BFB61A754640EA0C0026
:1007B0005B084FEA3202B6EB020E75EB030E22BF66
:1007C000B61A754640EA5C005B084FEA3202B6EBA7
:1007D000020E75EB030E22BFB61A754640EA9C0066
:1007E0005B084FEA3202B6EB020E75EB030E22BF36
:1007F000B61A754640EADC0055EA060E18D04FEAF4
:10080000051545EA16754FEA06164FEAC30343EA93
:1008100052734FEAC2025FEA1C1CC0D111F4801F60
:100820000BD141EA00014FF000004FF0004CB6E759
:1008300011F4801F04BF01430020B4F1FD0C88BFF8
:10084000BCF5E06F3FF6AFAEB5EB030C04BFB6EB03
:10085000020C5FEA500C50F1000041EB045170BDF6
:100860000EF0004E4EEA113114EB5C04C2BFD4EB23
:100870000C0541EA045170BD41F480114FF0000EA7
:10088000013C90E645EA060E8DE60CEA135594EA23
:100890000C0F08BF95EA0C0F3FF43BAF94EA0C0F26
:1008A0000AD150EA01347FF434AF95EA0C0F7FF49B
:1008B00025AF104619462CE795EA0C0F06D152EAEF
:1008C00003353FF4FDAE1046194622E750EA4106D3
:1008D00018BF52EA43067FF4C5AE50EA41047FF4E4
:1008E0000DAF52EA43057FF4EBAE12E74FF0FF3C49
:1008F00006E000BF4FF0010C02E000BF4FF0010C1A
:100900004DF804CD4FEA410C7FEA6C5C4FEA430C92
:1009100018BF7FEA6C5C1BD001B050EA410C0CBFE1
:1009200052EA430C91EA030F02BF90EA020F002043
:10093000704710F1000F91EA030F58BF994208BFAA
:1009400090422CBFD8176FEAE37040F00100704767
:100950004FEA410C7FEA6C5C02D150EA013C07D1BE
:100960004FEA430C7FEA6C5CD6D152EA033CD3D009
:100970005DF8040B704700BF8446104662468C4603
:100980001946634600E000BF01B5FFF7B7FF002836
:1009900048BF10F1000F01BD4DF808EDFFF7F4FF5F
:1009A0000CBF012000205DF808FB00BF4DF808EDEA
:1009B000FFF7EAFF34BF012000205DF808FB00BF0D
:1009C0004DF808EDFFF7E0FF94BF012000205DF82F
:1009D00008FB00BF4DF808EDFFF7CEFF94BF0120E4
:1009E00000205DF808FB00BF4DF808EDFFF7C4FFDD
:1009F00034BF012000205DF808FB00BF4FEA410230
:100A000012F5001215D211D56FF47873B3EB625260
:100A100012D94FEAC12343F0004343EA505311F087
:100A2000004F23FA02F018BF404270474FF0000019
:100A3000704750EA013005D111F0004008BF6FF057
:100A4000004070474FF00000704700BF4A0011D2CD
:100A500012F5001211D20DD56FF47873B3EB625218
:100A60000ED44FEAC12343F0004343EA505323FA24
:100A700002F070474FF00000704750EA013002D199
:100A80004FF0FF3070474FF0000070474FEA4102CF
:100A9000B2F1E04324BFB3F5001CDCF1FE5C0DD9DC
:100AA00001F0004C4FEAC0024CEA5070B2F1004F26
:100AB00040EB830008BF20F00100704711F0804F29
:100AC00021D113F13872BCBF01F00040704741F4EE
:100AD00080114FEA5252C2F11802C2F1200C10FAF2
:100AE0000CF320FA02F018BF40F001004FEAC123D6
:100AF0004FEAD32303FA0CFC40EA0C0023FA02F37A
:100B00004FEA4303CCE77FEA625307D150EA01334F
:100B10001EBF4FF0FE4040F44000704701F000401F
:100B200040F0FE4040F40000704700BF80F00040FD
:100B300002E000BF81F0004142001FBF5FEA4103B5
:100B400092EA030F7FEA226C7FEA236C6AD04FEAB5
:100B50001262D2EB1363C1BFD218414048404140FA
:100B6000B8BF5B42192B88BF704710F0004F40F4AC
:100B7000000020F07F4018BF404211F0004F41F4C8
:100B8000000121F07F4118BF494292EA030F3FD094
:100B9000A2F1010241FA03FC10EB0C00C3F12003A7
:100BA00001FA03F100F0004302D5494260EB400036
:100BB000B0F5000F13D3B0F1807F06D340084FEAA1
:100BC000310102F10102FE2A51D2B1F1004F40EB96
:100BD000C25008BF20F0010040EA030070474900FE
:100BE00040EB0000013A28BFB0F5000FEDD2B0FA9B
:100BF00080FCACF1080CB2EB0C0200FA0CF0AABFBE
:100C000000EBC25052421843BCBFD040184370475B
:100C100092F0000F81F4000106BF80F40000013261
:100C2000013BB5E74FEA41037FEA226C18BF7FEA38
:100C3000236C21D092EA030F04D092F0000F08BF7A
:100C40000846704790EA010F1CBF0020704712F061
:100C50007F4F04D1400028BF40F00040704712F1A0
:100C600000723CBF00F50000704700F0004343F005
:100C7000FE4040F4000070477FEA226216BF08463B
:100C80007FEA23630146420206BF5FEA412390EAFE
:100C9000010F40F4800070474FF0000304E000BFF4
:100CA00010F0004348BF40425FEA000C08BF7047A5
:100CB00043F0964301464FF000001CE050EA010269
:100CC00008BF70474FF000030AE000BF50EA01027E
:100CD00008BF704711F0004302D5404261EB41016B
:100CE0005FEA010C02BF84460146002043F0B64390
:100CF00008BFA3F18053A3F50003BCFA8CF2083AB5
:100D0000A3EBC25310DB01FA02FC634400FA02FCBD
:100D1000C2F12002BCF1004F20FA02F243EB0200C4
:100D200008BF20F00100704702F1200201FA02FC26
:100D3000C2F1200250EA4C0021FA02F243EB020019
:100D400008BF20EADC70704780B500AF00F008FFF4
:100D500000F02EF800F084F900F064F900F0C2F819
:100D600000F082F800F04EFD0E4801F057F84FF405
:100D70007A710C4801F000F90A4801F003FA0346C1
:100D80009AB2094B1A80084B1B88184600F056FC93
:100D90000346064A1360054B1B68184600F08EF99F
:100DA000E5E700BF2800002088010020E4000020C3
:100DB00080B594B000AF07F128032822002118461F
:100DC00003F0AFFE07F1140300221A605A609A6024
:100DD000DA601A613B1D00221A605A609A60DA607C
:100DE0000123BB624FF48033FB6200233B6301238A
:100DF000BB6302237B644FF48033BB644FF4E01386
:100E0000FB6407F12803184602F054F80346002B50
:100E100001D000F065FD0F237B610223BB6100233D
:100E2000FB614FF480633B6200237B6207F1140394
:100E30000221184602F0C0FA0346002B01D000F050
:100E40004FFD02237B604FF40043FB603B1D1846BF
:100E500002F02CFC0346002B01D000F041FD00BF46
:100E60005037BD4680BD000080B584B000AF3B1D4B
:100E700000221A605A609A60184B194A1A60174B80
:100E800000229A60154B01221A73144B00221A7526
:100E9000124B4FF46022DA61104B00225A600F4B64
:100EA00001221A610D4800F0E1FE0346002B01D03B
:100EB00000F016FD09237B600123BB600023FB606B
:100EC0003B1D1946054801F069F90346002B01D086
:100ED00000F006FD00BF1037BD4680BD2800002091
:100EE0000024014080B596B000AF07F1480300220E
:100EF0001A605A609A60DA6007F1400300221A60B3
:100F00005A6007F1240300221A605A609A60DA607E
:100F10001A615A619A613B1D20220021184603F094
:100F200000FE3E4B3E4A1A603C4B00225A603B4B4F
:100F300000229A60394B5922DA60384B00221A613C
:100F4000364B00225A61354B00229A61334802F039
:100F500019FD0346002B01D000F0C2FC4FF4805372
:100F6000BB6407F1480319462C4803F0DDF803463B
:100F7000002B01D000F0B4FC284802F052FD0346DB
:100F8000002B01D000F0ACFC00233B6400237B6409
:100F900007F140031946214803F014FD0346002BD6
:100FA00001D000F09DFC60237B620023BB62002324
:100FB000FB6200233B6300237B630023BB630023AE
:100FC000FB6307F1240300221946144802F0EAFFEC
:100FD0000346002B01D000F083FC00237B6000233C
:100FE000BB600023FB6000233B6100237B614FF467
:100FF0000053BB6100233B623B1D1946074803F0C9
:101000003FFD0346002B01D000F06AFC034800F0CE
:1010100015FD00BF5837BD4680BD00BF58000020F9
:10102000002C014080B582B000AF0C4B5B690B4ACD
:1010300043F001035361094B5B6903F001037B60DB
:101040007B68002200210C2001F013FB0C2001F032
:101050002CFB00BF0837BD4680BD00BF001002401A
:1010600080B485B000AF144B9B69134A43F0200352
:101070009361114B9B6903F02003FB60FB680E4BEF
:101080009B690D4A43F0080393610B4B9B6903F086
:101090000803BB60BB68084B9B69074A43F0040325
:1010A0009361054B9B6903F004037B607B6800BF81
:1010B0001437BD4680BC70470010024080B584B034
:1010C00000AF78600023FB607A6813465B0013442E
:1010D0001A01D31ACC4A82FB03125211DB17D31A1E
:1010E000FB607B68002B3FDB7B68092B3CDC00232B
:1010F000FF220021002000F0D9FA00230022002165
:10110000012000F0D3FA002300220021022000F089
:10111000CDFA002300220021032000F0C7FA0023AB
:1011200000220021042000F0C1FA00230022002147
:10113000052000F0BBFA002300220021062000F069
:10114000B5FA002300220021072000F0AFFA0023A7
:1011500000220021082000F0A9FA0023002200212B
:10116000092000F0A3FA5CE27B680A2B3FDD7B6874
:10117000132B3CDC0023FF220021002000F096FA14
:101180000023FF220021012000F090FA002300221A
:101190000021022000F08AFA00230022002103200F
:1011A00000F084FA002300220021042000F07EFADF
:1011B000002300220021052000F078FA00230022FD
:1011C0000021062000F072FA0023002200210720EF
:1011D00000F06CFA002300220021082000F066FADB
:1011E000002300220021092000F060FA19E27B6848
:1011F000142B3FDD7B681D2B3CDC0023FF220021EC
:10120000002000F053FA0023FF220021012000F00B
:101210004DFA0023FF220021022000F047FA0023AC
:1012200000220021032000F041FA002300220021C7
:10123000042000F03BFA002300220021052000F0EA
:1012400035FA002300220021062000F02FFA0023A7
:1012500000220021072000F029FA002300220021AB
:10126000082000F023FA002300220021092000F0CA
:101270001DFAD6E17B681E2B3FDD7B68272B3CDC0B
:101280000023FF220021002000F010FA0023FF229B
:101290000021012000F00AFA0023FF220021022091
:1012A00000F004FA00230022FF21032000F0FEF9E1
:1012B000002300220021042000F0F8F9002300227E
:1012C0000021052000F0F2F9002300220021062071
:1012D00000F0ECF9002300220021072000F0E6F9DD
:1012E000002300220021082000F0E0F90023002262
:1012F0000021092000F0DAF993E17B68282B3FDD1B
:101300007B68312B3CDC00230022FF21002000F011
:10131000CDF900230022FF21012000F0C7F90023AE
:101320000022FF21022000F0C1F900230022FF214A
:10133000032000F0BBF900230022FF21042000F06D
:10134000B5F9002300220021052000F0AFF90023A9
:1013500000220021062000F0A9F90023002200212C
:10136000072000F0A3F9002300220021082000F04C
:101370009DF9002300220021092000F097F950E197
:101380007B68322B42DD7B683B2B3FDC0023002255
:10139000FF21002000F08AF900230022FF21012014
:1013A00000F084F900230022FF21022000F07EF9E2
:1013B00000230022FF21032000F078F900230022FF
:1013C000FF21042000F072F900230022FF210520F4
:1013D00000F06CF9002300220021062000F066F9DD
:1013E000002300220021072000F060F900230022E2
:1013F0000021082000F05AF90023002200210920D2
:1014000000F054F90DE100BF1F85EB517B683C2BC8
:101410003FDD7B68452B3CDC00230022FF210020C0
:1014200000F044F900230022FF21012000F03EF9E2
:1014300000230022FF21022000F038F900230022BF
:10144000FF21032000F032F900230022FF210420B5
:1014500000F02CF900230022FF21052000F026F9DE
:1014600000230022FF21062000F020F900230022A3
:101470000021072000F01AF9002300220021082093
:1014800000F014F9002300220021092000F00EF9D9
:10149000C7E07B68462B3FDD7B684F2B3CDC00239D
:1014A0000022FF21002000F001F900230022FF218B
:1014B000012000F0FBF800230022FF21022000F0B1
:1014C000F5F800230022FF21032000F0EFF80023AD
:1014D0000022FF21042000F0E9F800230022FF2170
:1014E000052000F0E3F800230022FF21062000F091
:1014F000DDF800230022FF21072000F0D7F80023A9
:1015000000220021082000F0D1F800230022002151
:10151000092000F0CBF884E07B68502B3FDD7B682E
:10152000592B3CDC00230022FF21002000F0BEF8F4
:1015300000230022FF21012000F0B8F80023002240
:10154000FF21022000F0B2F800230022FF21032037
:1015500000F0ACF800230022FF21042000F0A6F8E0
:1015600000230022FF21052000F0A0F80023002224
:10157000FF21062000F09AF800230022FF21072017
:1015800000F094F800230022FF21082000F08EF8DC
:10159000002300220021092000F088F841E07B6848
:1015A0005A2B3EDD7B68632B3BDC00230022FF21AE
:1015B000002000F07BF800230022FF21012000F032
:1015C00075F800230022FF21022000F06FF80023AD
:1015D0000022FF21032000F069F800230022FF21F0
:1015E000042000F063F800230022FF21052000F012
:1015F0005DF800230022FF21062000F057F80023A9
:101600000022FF21072000F051F800230022FF21D3
:10161000082000F04BF800230022FF21092000F0F1
:1016200045F8F86800F070F800F0ECF8322000F0AF
:10163000F9FA00BF1037BD4680BD00BF80B483B04B
:1016400000AF78607B68642202FB03F30C4A82FBE4
:1016500003121A44D212DB17D31A7B607B68642B07
:1016600002DD64237B6004E07B68002B01DA002349
:101670007B607B6818460C37BD4680BC704700BF56
:101680008100088080B582B000AF786000210548F5
:1016900002F0C2FB044B01221A6000BF0837BD46AE
:1016A00080BD00BF580000208C01002080B485B0B0
:1016B00000AFF860B9607A603B60FB68D9B2104A4D
:1016C000FB6802F823107B68D9B20D4AFB689B00C7
:1016D00013440A465A70BB68D9B2094AFB689B009A
:1016E00013440A469A703B68D9B2054AFB689B00CE
:1016F00013440A46DA7000BF1437BD4680BC7047F9
:10170000E800002000000000B0B586B000AF7860AF
:101710007B682D2B01DD2D237B6000237B615FE047
:10172000354A7B6912F82310344A7B6902F823108A
:1017300001233B614EE07B68C3F15A031846FFF773
:10174000AFFA0346FB60F868FEF766FE28A3D3E90C
:101750000023FEF7B9FE02460B46104619464FF02D
:101760000002274BFEF7DAFF02460B4610461946E9
:10177000FFF78CF90346FB601F4A7B699B001A4404
:101780003B6913441B781846FEF734FE04460D46A9
:10179000F868FEF741FE02460B461046194603F074
:1017A000EDF902460B4620462946FEF7B7FF0246F2
:1017B0000B4610461946FFF749F90346D9B20F4ABE
:1017C0007B699B001A443B6913440A461A703B69C3
:1017D00001333B613B69032BADDD7B6901337B61E9
:1017E0007B69132B9CDD00BF00BF1837BD46B0BD21
:1017F000F1D4C853FB210940E80000203801002043
:101800000080664080B586B000AF00237B61002376
:101810003B6136E02E4A3B699B0013445B781A0417
:101820002B493B699B000B449B781B021A432849B8
:101830003B699B000B44DB7813437B601723FB6001
:1018400019E00122FB6802FA03F31A467B68134091
:10185000002B05D01F4A7B693C2122F8131004E0BD
:101860001C4A7B691E2122F813107B6901337B61BE
:10187000FB68013BFB60FB68002BE2DA3B6901334C
:101880003B613B69132BC5DD0023BB600AE0114AB5
:101890007B69002122F813107B6901337B61BB68EF
:1018A0000133BB60BB68312BF1DD7B699BB2094A18
:1018B0000021094802F00EF900BF084B1B68002BFD
:1018C000FBD0064B00221A6000BF1837BD4680BD12
:1018D0003801002090010020580000208C010020D9
:1018E00080B400AF72B600BFFEE7000080B483B0E2
:1018F00000AF0E4B9B690D4A43F0010393610B4B04
:101900009B6903F001037B607B68084BDB69074A36
:1019100043F08053D361054BDB6903F080533B6098
:101920003B6800BF0C37BD4680BC704700100240CA
:1019300080B588B000AF786007F1100300221A600C
:101940005A609A60DA607B681B68144A934221D11E
:10195000134B9B69124A43F400739361104B9B69CC
:1019600003F40073FB60FB680D4B9B690C4A43F06A
:10197000080393610A4B9B6903F00803BB60BB68D3
:1019800002233B6103237B6107F1100319460548DD
:1019900001F00CF900BF2037BD4680BD0024014096
:1019A00000100240000C014080B584B000AF7860A8
:1019B0007B681B681D4A934233D11D4B9B691C4AAF
:1019C00043F4006393611A4B9B6903F40063FB606B
:1019D000FB68184B184A1A60164B10225A60154BB8
:1019E00000229A60134B8022DA60124B4FF480720F
:1019F0001A61104B4FF480625A610E4B00229A61BB
:101A00000C4B0022DA610B4800F06AFE0346002B03
:101A100001D0FFF765FF7B68064A5A62054A7B687A
:101A2000536200BF1037BD4680BD00BF002C01408F
:101A300000100240A00000201C00024080B588B0C9
:101A400000AF786007F1100300221A605A609A60B4
:101A5000DA607B681B68104A934218D10F4B9B6970
:101A60000E4A43F0040393610C4B9B6903F004039B
:101A7000FB60FB684FF480733B6102237B610223B0
:101A8000FB6107F110031946054801F08FF800BF0C
:101A90002037BD4680BD00BF002C01400010024031
:101AA0000008014080B400AFFEE780B400AFFEE75D
:101AB00080B400AFFEE780B400AFFEE780B400AFB3
:101AC000FEE780B400AF00BFBD4680BC704780B465
:101AD00000AF00BFBD4680BC704780B400AF00BF00
:101AE000BD4680BC704780B500AF00F07FF800BFF6
:101AF00080BD000080B500AF024800F023FF00BFAA
:101B000080BD00BFA000002080B400AF00BFBD4674
:101B100080BC7047FFF7F8FF0B480C490C4A0023C4
:101B200002E0D458C4500433C4188C42F9D3094A93
:101B3000094C002301E013600432A242FBD302F0FF
:101B4000F9FFFFF701F97047000000200C000020AA
:101B5000685E00080C000020B8050020FEE70000C9
:101B600080B500AF084B1B68074A43F010031360B1
:101B7000032000F073FD0F2000F008F8FFF7B6FE19
:101B80000023184680BD00BF0020024080B582B00F
:101B900000AF7860124B1A68124B1B7819464FF44D
:101BA0007A73B3FBF1F3B2FBF3F3184600F08BFD4D
:101BB0000346002B01D001230EE07B680F2B0AD8CF
:101BC000002279684FF0FF3000F053FD064A7B6831
:101BD0001360002300E0012318460837BD4680BD8E
:101BE00000000020080000200400002080B400AFA6
:101BF000054B1B781A46054B1B681344034A1360B8
:101C000000BFBD4680BC704708000020B40500201E
:101C100080B400AF024B1B681846BD4680BC7047BD
:101C2000B405002080B584B000AF7860FFF7F0FF06
:101C3000B8607B68FB60FB68B3F1FF3F05D00A4BDF
:101C40001B781A46FB681344FB6000BFFFF7E0FFF8
:101C50000246BB68D31AFA689A42F7D800BF00BFA1
:101C60001037BD4680BD00BF0800002080B586B09B
:101C700000AF78600023FB7500233B610023BB604D
:101C80000023FB607B68002B01D10123BEE07B6851
:101C90009B68002B7B689B6A002B09D17B68002224
:101CA000DA627B68002283F824207868FFF740FE20
:101CB000786800F0C5FB0346FB757B689B6A03F000
:101CC0001003002B40F09980FB7D002B40F09580A5
:101CD0007B689B6A23F4885323F0020343F00202DB
:101CE0007B689A627B685A687B68DB691A437B6809
:101CF0001B7B5B001343BA681343BB607B689B6824
:101D0000B3F5807F03D07B689B68012B02D14FF431
:101D1000807300E000233A6913433B617B681B7DBD
:101D2000012B19D17B681B7B002B09D17B689B6938
:101D3000013B5A033B69134343F400633B610BE0EF
:101D40007B689B6A43F020027B689A627B68DB6A4F
:101D500043F001027B68DA627B681B685B6823F4EE
:101D600069417B681B683A690A435A607B681B6853
:101D70009A68284B13407A681268B9680B439360DD
:101D80007B689B68B3F5807F03D07B689B68012BE1
:101D900004D17B681B69013B1B05FB607B681B68EA
:101DA000DB6A23F470017B681B68FA680A43DA6215
:101DB0007B681B689A68184B1340BA689A420BD12B
:101DC0007B680022DA627B689B6A23F0030343F09E
:101DD00001027B689A6218E07B689B6A23F0120319
:101DE00043F010027B689A627B68DB6A43F0010271
:101DF0007B68DA620123FB7507E07B689B6A43F02E
:101E000010027B689A620123FB75FB7D1846183728
:101E1000BD4680BDFDF7E1FFFE0E1FFF80B584B01B
:101E200000AF78600023FB737B6893F82430012BAC
:101E300001D1022398E07B68012283F8242078688E
:101E400000F0A4FA0346FB73FB7B002B40F0878075
:101E50007B689B6A23F4407323F0010343F4807290
:101E60007B689A627B681B68414A934205D1414B6B
:101E70005B6803F47023002B15D17B689B6A23F405
:101E800080127B689A627B681B685B6803F48063DE
:101E9000002B26D07B689B6A23F4405343F4805286
:101EA0007B689A621DE07B689B6A43F480127B68C2
:101EB0009A627B681B682F4A934204D07B681B6838
:101EC0002B4A93420DD12B4B5B6803F48063002BAC
:101ED00007D07B689B6A23F4405343F480527B68AD
:101EE0009A627B689B6A03F48053002B06D07B6860
:101EF000DB6A23F006027B68DA6202E07B6800227C
:101F0000DA627B68002283F824207B681B686FF00C
:101F100002021A607B681B689B6803F46023B3F5B8
:101F2000602F13D17B681B68114A934205D1114B76
:101F30005B6803F47023002B08D17B681B689A68E8
:101F40007B681B6842F4A0029A600CE07B681B6807
:101F50009A687B681B6842F480129A6003E07B6891
:101F6000002283F82420FB7B18461037BD4680BD35
:101F7000002801400024014090B587B000AF786090
:101F8000396000237B610023FB6000233B61FFF786
:101F90003FFE78617B681B689B6803F48073002BAD
:101FA0000BD07B689B6A43F020027B689A627B6857
:101FB000002283F824200123D3E07B681B685B6840
:101FC00003F48073002B31D17B681B68DB6A03F458
:101FD0007003002B2AD121E03B68B3F1FF3F1DD0F5
:101FE0003B68002B07D0FFF713FE02467B69D31A2C
:101FF0003A689A4212D27B681B681B6803F002039E
:10200000002B0BD17B689B6A43F004027B689A62C9
:102010007B68002283F824200323A2E07B681B68EE
:102020001B6803F00203002BD6D070E04F4B1C68F6
:10203000022001F0F1FB0346B4FBF3F27B681B685E
:1020400019694B4B0B40002B18D17B681B68D96872
:10205000484B0B40002B11D17B681B681969464B1C
:102060000B40002B08D17B681B68D968434B0B40A1
:10207000002B01D1142320E029231EE07B681B687C
:1020800019693D4B0B40002B06D17B681B68D96852
:102090003A4B0B40002B0DD07B681B681969384BFD
:1020A0000B40002B08D17B681B68D968344B0B4070
:1020B000002B01D1542300E0FC2302FB03F33B611E
:1020C00021E03B68B3F1FF3F1AD03B68002B07D0FB
:1020D000FFF79EFD02467B69D31A3A689A420FD2F7
:1020E000FB683A699A420BD97B689B6A43F0040209
:1020F0007B689A627B68002283F82420032330E007
:10210000FB680133FB60FB683A699A42D9D87B6867
:102110001B686FF012021A607B689B6A43F40072BE
:102120007B689A627B681B689B6803F46023B3F545
:10213000602F15D17B681B7B002B11D17B689B6ABC
:1021400023F480727B689A627B689B6A03F48053F5
:10215000002B05D17B689B6A43F001027B689A6281
:10216000002318461C37BD4690BD00BF000000206C
:10217000244992242449920092244912922449002D
:102180004992240080B483B000AF78607B681B68FC
:10219000DB6C18460C37BD4680BC704780B485B0F8
:1021A00000AF786039600023FB730023BB607B685D
:1021B00093F82430012B01D10223DCE07B6801225B
:1021C00083F824203B685B68062B1CD87B681B685F
:1021D000596B3B685A6813469B001344053B1F220A
:1021E00002FA03F3DB4319403B6818683B685A68FE
:1021F00013469B001344053B00FA03F27B681B68FF
:102200000A435A633CE03B685B680C2B1CD87B6834
:102210001B68196B3B685A6813469B001344233BA9
:102220001F2202FA03F3DB4319403B6818683B683E
:102230005A6813469B001344233B00FA03F27B6861
:102240001B680A431A631BE07B681B68D96A3B68FA
:102250005A6813469B001344413B1F2202FA03F3C2
:10226000DB4319403B6818683B685A6813469B007B
:102270001344413B00FA03F27B681B680A43DA62AD
:102280003B681B68092B1CD97B681B68D9683B68B5
:102290001A6813465B0013441E3B072202FA03F33D
:1022A000DB4319403B6898683B681A6813465B003B
:1022B00013441E3B00FA03F27B681B680A43DA6092
:1022C00019E07B681B6819693B681A6813465B0054
:1022D0001344072202FA03F3DB4319403B68986872
:1022E0003B681A6813465B00134400FA03F27B68EC
:1022F0001B680A431A613B681B68102B03D03B68BC
:102300001B68112B32D17B681B681D4A934225D173
:102310007B681B689B6803F40003002B26D17B6855
:102320001B689A687B681B6842F400029A603B68ED
:102330001B68102B1AD1134B1B68134AA2FB0323F3
:102340009A0C13469B0013445B00BB6002E0BB6821
:10235000013BBB60BB68002BF9D107E07B689B6A3F
:1023600043F020027B689A620123FB737B680022A2
:1023700083F82420FB7B18461437BD4680BC704789
:10238000002401400000002083DE1B4380B584B0A0
:1023900000AF78600023FB600023BB607B681B6894
:1023A0009B6803F00103012B40D07B681B689A688F
:1023B0007B681B6842F001029A601F4B1B681F4A32
:1023C000A2FB03239B0CBB6002E0BB68013BBB602C
:1023D000BB68002BF9D1FFF71BFCF8601FE0FFF78B
:1023E00017FC0246FB68D31A022B18D97B681B68BE
:1023F0009B6803F00103012B11D07B689B6A43F0BB
:1024000010027B689A627B68DB6A43F001027B689A
:10241000DA627B68002283F82420012307E07B68CE
:102420001B689B6803F00103012BD8D100231846D9
:102430001037BD4680BD00BF0000002083DE1B4377
:1024400080B584B000AF78600023FB607B681B68B8
:102450009B6803F00103012B2ED17B681B689A68EF
:102460007B681B6822F001029A60FFF7D1FBF860DD
:102470001BE0FFF7CDFB0246FB68D31A022B14D9F1
:102480007B681B689B6803F00103012B0DD17B68FF
:102490009B6A43F010027B689A627B68DB6A43F0B8
:1024A00001027B68DA62012307E07B681B689B6896
:1024B00003F00103012BDCD0002318461037BD4682
:1024C00080BD000080B485B000AF78607B6803F009
:1024D0000703FB600C4BDB68BB60BA684FF6FF0379
:1024E0001340BB60FB681A02BB68134343F0BF6331
:1024F00043F40033BB60044ABB68D36000BF1437A9
:10250000BD4680BC704700BF00ED00E080B400AF66
:10251000044BDB681B0A03F007031846BD4680BC6A
:10252000704700BF00ED00E080B483B000AF034609
:10253000FB7197F90730002B0BDBFB7903F01F02CF
:10254000064997F907305B09012000FA02F241F8C9
:10255000232000BF0C37BD4680BC704700E100E07F
:1025600080B483B000AF03463960FB7197F9073040
:10257000002B0ADB3B68DAB20C4997F907301201ED
:10258000D2B20B4483F800230AE03B68DAB2084970
:10259000FB7903F00F03043B1201D2B20B441A760D
:1025A00000BF0C37BD4680BC704700BF00E100E0B3
:1025B00000ED00E080B489B000AFF860B9607A60E7
:1025C000FB6803F00703FB61FB69C3F10703042BFE
:1025D00028BF0423BB61FB690433062B02D9FB69C6
:1025E000033B00E000237B614FF0FF32BB6902FA3E
:1025F00003F3DA43BB681A407B699A404FF0FF311E
:102600007B6901FA03F3D9437B680B4013431846F7
:102610002437BD4680BC704780B582B000AF78607B
:102620007B68013BB3F1807F01D301230FE00A4AAD
:102630007B68013B53600F214FF0FF30FFF790FFA5
:10264000054B00229A60044B07221A6000231846AB
:102650000837BD4680BD00BF10E000E080B582B005
:1026600000AF78607868FFF72DFF00BF0837BD46E0
:1026700080BD80B586B000AF0346B9607A60FB7359
:1026800000237B61FFF742FF78617A68B968786957
:10269000FFF790FF024697F90F3011461846FFF7F3
:1026A0005FFF00BF1837BD4680BD80B582B000AF68
:1026B0000346FB7197F907301846FFF735FF00BF57
:1026C0000837BD4680BD80B582B000AF78607868BD
:1026D000FFF7A2FF034618460837BD4680BD00003D
:1026E00080B485B000AF78600023FB607B68002B6E
:1026F00001D1012343E07B681B681A46224B134437
:10270000224AA2FB03231B099A007B681A647B6898
:102710001F4ADA637B68022283F821207B681B68EA
:102720001B68FB60FB6823F47F5323F03003FB60DE
:102730007B685A687B689B681A437B68DB681A432E
:102740007B681B691A437B685B691A437B689B69DA
:102750001A437B68DB691343FA681343FB607B68A9
:102760001B68FA681A607B6800229A637B68012202
:1027700083F821207B68002283F82020002318465C
:102780001437BD4680BC7047F8FFFDBFCDCCCCCC24
:102790000000024080B586B000AFF860B9607A6092
:1027A0003B600023FB75FB6893F82030012B01D1BF
:1027B00002234BE0FB68012283F82020FB6893F89A
:1027C0002130DBB2012B3AD1FB68022283F82120B1
:1027D000FB6800229A63FB681B681A68FB681B6829
:1027E00022F001021A603B687A68B968F86800F064
:1027F000AFF9FB68DB6A002B08D0FB681B681A681E
:10280000FB681B6842F00E021A600FE0FB681B6851
:102810001A68FB681B6822F004021A60FB681B68D8
:102820001A68FB681B6842F00A021A60FB681B68A2
:102830001A68FB681B6842F001021A6005E0FB6839
:10284000002283F820200223FB75FB7D18461837F1
:10285000BD4680BD80B584B000AF78600023FB73B7
:102860007B6893F82130DBB2022B05D07B68042211
:102870009A630123FB7351E07B681B681A687B68CD
:102880001B6822F00E021A607B681B681A687B685E
:102890001B6822F001021A607B681B68224A93427F
:1028A00029D07B681B68214A934222D07B681B6831
:1028B0001F4A93421AD07B681B681E4A934212D06B
:1028C0007B681B681C4A93420AD07B681B681B4AC2
:1028D000934202D14FF480130EE04FF080730BE06F
:1028E0004FF4803308E04FF4805305E04FF48073D9
:1028F00002E0102300E00123114A53607B680122AB
:1029000083F821207B68002283F820207B685B6BA2
:10291000002B03D07B685B6B78689847FB7B18467D
:102920001037BD4680BD00BF080002401C000240B9
:102930003000024044000240580002406C00024057
:102940000000024080B584B000AF78607B68DB6B2C
:102950001B68FB607B681B681B68BB607B681B6C2B
:1029600004229A40FB681340002B4FD0BB6803F051
:102970000403002B4AD07B681B681B6803F020030C
:10298000002B07D17B681B681A687B681B6822F0E4
:1029900004021A607B681B68664A934229D07B68F0
:1029A0001B68654A934222D07B681B68634A934246
:1029B0001AD07B681B68624A934212D07B681B68FE
:1029C000604A93420AD07B681B685F4A934202D1F7
:1029D0004FF480030EE04FF080630BE04FF4802350
:1029E00008E04FF4804305E04FF4806302E04023A9
:1029F00000E00423554A53607B68DB6A002B00F03B
:102A000094807B68DB6A786898478EE07B681B6CF3
:102A100002229A40FB681340002B56D0BB6803F09B
:102A20000203002B51D07B681B681B6803F0200356
:102A3000002B0BD17B681B681A687B681B6822F02F
:102A40000A021A607B68012283F821207B681B68D8
:102A5000384A934229D07B681B68374A934222D078
:102A60007B681B68354A93421AD07B681B68344ADE
:102A7000934212D07B681B68324A93420AD07B682B
:102A80001B68314A934202D14FF400130EE04FF01D
:102A900000730BE04FF4003308E04FF4005305E0FF
:102AA0004FF4007302E0202300E00223274A536022
:102AB0007B68002283F820207B689B6A002B34D03F
:102AC0007B689B6A786898472FE07B681B6C0822BC
:102AD0009A40FB681340002B28D0BB6803F0080322
:102AE000002B23D07B681B681A687B681B6822F068
:102AF0000E021A607B681A6C7B68DB6B012101FA9D
:102B000002F25A607B6801229A637B68012283F893
:102B100021207B68002283F820207B681B6B002B20
:102B200004D07B681B6B7868984700BF00BF1037E4
:102B3000BD4680BD080002401C000240300002403B
:102B400044000240580002406C0002400000024075
:102B500080B485B000AFF860B9607A603B60FB6814
:102B60001A6CFB68DB6B012101FA02F25A60FB6808
:102B70001B683A685A60FB685B68102B08D1FB68D9
:102B80001B687A689A60FB681B68BA68DA6007E0BD
:102B9000FB681B68BA689A60FB681B687A68DA6031
:102BA00000BF1437BD4680BC7047000080B48BB0B6
:102BB00000AF7860396000237B6200233B6269E1EB
:102BC00001227B6A02FA03F3FB613B681B68FA6926
:102BD0001340BB61BA69FB699A4240F058813B6877
:102BE0005B689A4A93425ED0984A934275D8984A55
:102BF000934258D0964A93426FD8964A934252D005
:102C0000944A934269D8944A93424CD0924A934250
:102C100063D8924A934246D0904A93425DD8122B91
:102C20002AD8122B59D801A252F823F0A72C000859
:102C3000812C0008932C0008D52C0008DB2C000800
:102C4000DB2C0008DB2C0008DB2C0008DB2C000848
:102C5000DB2C0008DB2C0008DB2C0008DB2C000838
:102C6000DB2C0008DB2C0008DB2C0008DB2C000828
:102C7000892C00089D2C0008794A934213D02CE03F
:102C80003B68DB683B6229E03B68DB6804333B62FE
:102C900024E03B68DB6808333B621FE03B68DB688D
:102CA0000C333B621AE03B689B68002B02D1042383
:102CB0003B6213E03B689B68012B05D108233B6214
:102CC0007B68FA691A6109E008233B627B68FA694C
:102CD0005A6103E000233B6200E000BFBB69FF2BA9
:102CE00001D87B6801E07B6804337B61BB69FF2B03
:102CF00002D87B6A9B0002E07B6A083B9B003B6139
:102D00007B691A680F213B6901FA03F3DB431A4020
:102D1000396A3B6901FA03F31A437B691A603B681D
:102D20005B6803F08053002B00F0B1804D4B9B6932
:102D30004C4A43F0010393614A4B9B6903F0010342
:102D4000BB60BB68484A7B6A9B08023352F8233059
:102D5000FB607B6A03F003039B000F2202FA03F37C
:102D6000DB43FA681340FB607B68404A934213D010
:102D70007B683F4A93420DD07B683E4A934207D01E
:102D80007B683D4A934201D1032306E0042304E01B
:102D9000022302E0012300E000237A6A02F003022A
:102DA00092009340FA681343FB602F497B6A9B08AB
:102DB0000233FA6841F823203B685B6803F4801310
:102DC000002B06D02D4B9A682C49BB6913438B60AE
:102DD00006E02A4B9A68BB69DB43284913408B60A5
:102DE0003B685B6803F40013002B06D0234BDA68C2
:102DF0002249BB691343CB6006E0204BDA68BB690C
:102E0000DB431E491340CB603B685B6803F400332F
:102E1000002B06D0194B5A681849BB6913434B6005
:102E200006E0164B5A68BB69DB43144913404B60FC
:102E30003B685B6803F48033002B21D00F4B1A688A
:102E40000E49BB6913430B6021E000BF0000321044
:102E500000003110000022100000211000001210AC
:102E60000000111000100240000001400008014065
:102E7000000C01400010014000140140000401401A
:102E80000B4B1A68BB69DB43094913400B607B6A33
:102E900001337B623B681A687B6A22FA03F3002BDA
:102EA0007FF48EAE00BF00BF2C37BD4680BC70479C
:102EB0000004014080B586B000AF78607B68002BCD
:102EC00001D1012372E27B681B6803F00103002B30
:102ED00000F08780924B5B6803F00C03042B0CD04E
:102EE0008F4B5B6803F00C03082B12D18C4B5B6893
:102EF00003F48033B3F5803F0BD1894B1B6803F497
:102F00000033002B6CD07B685B68002B68D10123F9
:102F10004CE27B685B68B3F5803F06D1804B1B6851
:102F20007F4A43F4803313602EE07B685B68002B9C
:102F30000CD17B4B1B687A4A23F480331360784BA7
:102F40001B68774A23F4802313601DE07B685B686D
:102F5000B3F5A02F0CD1724B1B68714A43F4802348
:102F600013606F4B1B686E4A43F4803313600BE0B1
:102F70006B4B1B686A4A23F480331360684B1B68F1
:102F8000674A23F4802313607B685B68002B13D0AF
:102F9000FEF73EFE386108E0FEF73AFE02463B6966
:102FA000D31A642B01D9032300E25D4B1B6803F4A1
:102FB0000033002BF0D014E0FEF72AFE386108E061
:102FC000FEF726FE02463B69D31A642B01D9032380
:102FD000ECE1534B1B6803F40033002BF0D100E00D
:102FE00000BF7B681B6803F00203002B63D04C4BCF
:102FF0005B6803F00C03002B0BD0494B5B6803F0BC
:103000000C03082B1CD1464B5B6803F48033002B68
:1030100016D1434B1B6803F00203002B05D07B68DD
:103020001B69012B01D00123C0E13D4B1B6823F03C
:10303000F8027B685B69DB00394913430B603AE0B7
:103040007B681B69002B20D0364B01221A60FEF7EB
:10305000DFFD386108E0FEF7DBFD02463B69D31A6D
:10306000022B01D90323A1E12D4B1B6803F00203BE
:10307000002BF0D02A4B1B6823F0F8027B685B69B9
:10308000DB00274913430B6015E0264B00221A6032
:10309000FEF7BEFD386108E0FEF7BAFD02463B6967
:1030A000D31A022B01D9032380E11D4B1B6803F0C7
:1030B0000203002BF0D17B681B6803F00803002B90
:1030C0003AD07B689B69002B19D0174B01221A60FC
:1030D000FEF79EFD386108E0FEF79AFD02463B6967
:1030E000D31A022B01D9032360E10D4B5B6A03F075
:1030F0000203002BF0D0012000F0BAFA1CE00A4BCA
:1031000000221A60FEF784FD38610FE0FEF780FDB3
:1031100002463B69D31A022B08D9032346E100BFBC
:10312000001002400000424280044242924B5B6A1F
:1031300003F00203002BE9D17B681B6803F0040352
:10314000002B00F0A6800023FB758B4BDB6903F09E
:103150008053002B0DD1884BDB69874A43F08053A5
:10316000D361854BDB6903F08053BB60BB680123EF
:10317000FB75824B1B6803F48073002B18D17F4BC7
:103180001B687E4A43F480731360FEF741FD38618B
:1031900008E0FEF73DFD02463B69D31A642B01D9D6
:1031A000032303E1754B1B6803F48073002BF0D0FD
:1031B0007B68DB68012B06D16F4B1B6A6E4A43F0BC
:1031C000010313622DE07B68DB68002B0CD16A4B96
:1031D0001B6A694A23F001031362674B1B6A664A44
:1031E00023F0040313621CE07B68DB68052B0CD121
:1031F000614B1B6A604A43F0040313625E4B1B6A17
:103200005D4A43F0010313620BE05B4B1B6A5A4AB1
:1032100023F001031362584B1B6A574A23F004033F
:1032200013627B68DB68002B15D0FEF7F1FC386178
:103230000AE0FEF7EDFC02463B69D31A41F2883200
:10324000934201D90323B1E04B4B1B6A03F0020305
:10325000002BEED014E0FEF7DBFC38610AE0FEF74D
:10326000D7FC02463B69D31A41F28832934201D916
:1032700003239BE0404B1B6A03F00203002BEED1BB
:10328000FB7D012B05D13C4BDB693B4A23F080538E
:10329000D3617B68DB69002B00F08780364B5B686D
:1032A00003F00C03082B61D07B68DB69022B46D14D
:1032B000334B00221A60FEF7ABFC386108E0FEF7E2
:1032C000A7FC02463B69D31A022B01D903236DE008
:1032D000294B1B6803F00073002BF0D17B681B6A3D
:1032E000B3F5803F08D1244B5B6823F400327B6840
:1032F0009B68214913434B601F4B5B6823F4741296
:103300007B68196A7B685B6A0B431B4913434B60FC
:103310001B4B01221A60FEF77BFC386108E0FEF7C8
:1033200077FC02463B69D31A022B01D903233DE007
:10333000114B1B6803F00073002BF0D035E0104BED
:1033400000221A60FEF764FC386108E0FEF760FCBA
:1033500002463B69D31A022B01D9032326E0064B10
:103360001B6803F00073002BF0D11EE07B68DB6963
:10337000012B07D1012319E000100240007000402A
:10338000600042420B4B5B68FB60FB6803F48032D9
:103390007B681B6A9A4206D1FB6803F470127B6853
:1033A0005B6A9A4201D0012300E0002318461837D7
:1033B000BD4680BD0010024080B584B000AF78608B
:1033C00039607B68002B01D10123D0E06A4B1B6878
:1033D00003F007033A689A4210D9674B1B6823F041
:1033E000070265493B6813430B60634B1B6803F09E
:1033F00007033A689A4201D00123B8E07B681B6852
:1034000003F00203002B20D07B681B6803F0040349
:10341000002B05D0594B5B68584A43F4E063536076
:103420007B681B6803F00803002B05D0534B5B68D7
:10343000524A43F460535360504B5B6823F0F002F0
:103440007B689B684D4913434B607B681B6803F0A6
:103450000103002B40D07B685B68012B07D1474BF1
:103460001B6803F40033002B15D101237FE07B6838
:103470005B68022B07D1414B1B6803F00073002BE4
:1034800009D1012373E03D4B1B6803F00203002BBD
:1034900001D101236BE0394B5B6823F003027B68A9
:1034A0005B68364913434B60FEF7B2FBF8600AE0F5
:1034B000FEF7AEFB0246FB68D31A41F28832934214
:1034C00001D9032353E02D4B5B6803F00C027B68AA
:1034D0005B689B009A42EBD1274B1B6803F0070304
:1034E0003A689A4210D2244B1B6823F00702224903
:1034F0003B6813430B60204B1B6803F007033A68DB
:103500009A4201D0012332E07B681B6803F0040378
:10351000002B08D0194B5B6823F4E0627B68DB6802
:10352000164913434B607B681B6803F00803002BAC
:1035300009D0124B5B6823F460527B681B69DB0087
:103540000E4913434B6000F021F802460B4B5B68B9
:103550001B0903F00F030A49CB5C22FA03F3094A63
:103560001360094B1B681846FEF710FB0023184632
:103570001037BD4680BD00BF002002400010024051
:10358000485C0008000000200400002080B487B0E0
:1035900000AF0023FB600023BB6000237B6100239E
:1035A0007B6000233B611E4B5B68FB60FB6803F0A4
:1035B0000C03042B02D0082B03D027E0194B3B61EE
:1035C00027E0FB689B0C03F00F03174AD35C7B607A
:1035D000FB6803F48033002B10D0114B5B685B0C4D
:1035E00003F00103114AD35CBB607B680D4A03FB07
:1035F00002F2BB68B2FBF3F37B6104E07B680C4A28
:1036000002FB03F37B617B693B6102E0054B3B619D
:1036100000BF3B6918461C37BD4680BC704700BFE1
:103620000010024000127A00605C0008705C000824
:1036300000093D0080B400AF024B1B681846BD4630
:1036400080BC70470000002080B500AFFFF7F2FF9C
:103650000246054B5B68DB0A03F007030349CB5CBA
:1036600022FA03F3184680BD00100240585C00089F
:1036700080B485B000AF78600A4B1B680A4AA2FB91
:1036800003235B0A7A6802FB03F3FB6000BFFB685D
:103690005A1EFA60002BF9D100BF00BF1437BD4697
:1036A00080BC704700000020D34D621080B586B00A
:1036B00000AF786000233B610023FB607B681B68E0
:1036C00003F00103002B7DD00023FB754F4BDB691A
:1036D00003F08053002B0DD14C4BDB694B4A43F078
:1036E0008053D361494BDB6903F08053BB60BB68F7
:1036F0000123FB75464B1B6803F48073002B18D124
:10370000434B1B68424A43F480731360FEF780FA10
:10371000386108E0FEF77CFA02463B69D31A642B55
:1037200001D903236DE03A4B1B6803F48073002B2F
:10373000F0D0364B1B6A03F44073FB60FB68002B30
:103740002ED07B685B6803F44073FA689A4227D0F6
:103750002E4B1B6A23F44073FB602E4B01221A6030
:103760002C4B00221A60294AFB681362FB6803F0A5
:103770000103002B14D0FEF74BFA38610AE0FEF784
:1037800047FA02463B69D31A41F28832934201D983
:10379000032336E01D4B1B6A03F00203002BEED01F
:1037A0001A4B1B6A23F440727B685B68174913430A
:1037B0000B62FB7D012B05D1144BDB69134A23F00F
:1037C0008053D3617B681B6803F00203002B08D091
:1037D0000E4B5B6823F440427B689B680B491343A4
:1037E0004B607B681B6803F01003002B08D0074B6D
:1037F0005B6823F480027B68DB68044913434B60F9
:10380000002318461837BD4680BD00BF0010024097
:10381000007000404004424280B588B000AF78603C
:1038200000237B610023FB6100233B610023FB60DD
:103830000023BB617B68102B0AD07B68102B00F241
:103840008A807B68012B45D07B68022B75D082E093
:10385000464B5B68FB60454B1B6803F08073002B95
:103860007BD0FB689B0C03F00F03414AD35C3B61A8
:10387000FB6803F48033002B15D03C4B5B685B0C7A
:1038800003F001033B4AD35C7B61FB6803F48033A4
:10389000002B0DD0384A7B69B2FBF3F23B6902FB87
:1038A00003F3FB6104E03B69344A02FB03F3FB6171
:1038B0002E4B5B6803F48003B3F5800F02D1FB69E4
:1038C000BB614AE0FB695B002D4AA2FB03235B0856
:1038D000BB6142E0254B1B6AFB60FB6803F440734D
:1038E000B3F5807F08D1FB6803F00203002B03D0FF
:1038F0004FF40043BB611FE0FB6803F44073B3F572
:10390000007F09D1194B5B6A03F00203002B03D03F
:1039100049F64043BB610FE0FB6803F44073B3F525
:10392000407F1CD1114B1B6803F40033002B16D0D1
:103930004FF22443BB6112E011E0FFF785FE02461F
:103940000A4B5B689B0B03F0030301335B00B2FB84
:10395000F3F3BB6104E000BF02E000BF00E000BF82
:10396000BB6918462037BD4680BD00BF001002402D
:10397000745C0008845C000800127A0000093D00B5
:10398000ABAAAAAA80B582B000AF78607B68002B92
:1039900001D1012341E07B6893F83D30DBB2002B7D
:1039A00006D17B68002283F83C207868FDF7FCFF95
:1039B0007B68022283F83D207B681A687B680433A9
:1039C0001946104600F05AFD7B68012283F8462014
:1039D0007B68012283F83E207B68012283F83F2028
:1039E0007B68012283F840207B68012283F8412014
:1039F0007B68012283F842207B68012283F8432000
:103A00007B68012283F844207B68012283F84520EB
:103A10007B68012283F83D20002318460837BD4605
:103A200080BD80B582B000AF78607B68002B01D18B
:103A3000012341E07B6893F83D30DBB2002B06D1D7
:103A40007B68002283F83C20786800F039F87B68B6
:103A5000022283F83D207B681A687B68043319468C
:103A6000104600F00BFD7B68012283F846207B683E
:103A7000012283F83E207B68012283F83F207B6887
:103A8000012283F840207B68012283F841207B6873
:103A9000012283F842207B68012283F843207B685F
:103AA000012283F844207B68012283F845207B684B
:103AB000012283F83D20002318460837BD4680BD0B
:103AC00080B483B000AF786000BF0C37BD4680BCC7
:103AD0007047000080B586B000AFF860B9607A60CA
:103AE0007B800023FB75BB68002B09D1FB6893F832
:103AF0003E30DBB2022B0CBF01230023DBB222E0FD
:103B0000BB68042B09D1FB6893F83F30DBB2022B72
:103B10000CBF01230023DBB215E0BB68082B09D1E1
:103B2000FB6893F84030DBB2022B0CBF012300236B
:103B3000DBB208E0FB6893F84130DBB2022B0CBF2C
:103B400001230023DBB2002B01D0022353E1BB6829
:103B5000002B09D1FB6893F83E30DBB2012B0CBF80
:103B600001230023DBB222E0BB68042B09D1FB68F0
:103B700093F83F30DBB2012B0CBF01230023DBB2F3
:103B800015E0BB68082B09D1FB6893F84030DBB225
:103B9000012B0CBF01230023DBB208E0FB6893F884
:103BA0004130DBB2012B0CBF01230023DBB2002B21
:103BB00024D07B68002B02D07B88002B01D101230D
:103BC00019E1BB68002B04D1FB68022283F83E2078
:103BD00016E0BB68042B04D1FB68022283F83F2067
:103BE0000EE0BB68082B04D1FB68022283F840205A
:103BF00006E0FB68022283F8412001E00123FAE09D
:103C0000BB680C2B00F2AE8001A252F823F000BF7B
:103C1000453C0008653D0008653D0008653D00081D
:103C20008D3C0008653D0008653D0008653D0008C5
:103C3000D53C0008653D0008653D0008653D00086D
:103C40001D3D0008FB685B6A6D4A9A62FB685B6A0F
:103C50006C4ADA62FB685B6A6B4A1A63FB68586AF3
:103C60007968FB681B6834331A467B88FEF792FD3F
:103C70000346002B01D00123BDE0FB681B68DA6816
:103C8000FB681B6842F40072DA606EE0FB689B6AB6
:103C90005B4A9A62FB689B6A5A4ADA62FB689B6AD3
:103CA000594A1A63FB68986A7968FB681B6838335D
:103CB0001A467B88FEF76EFD0346002B01D00123D8
:103CC00099E0FB681B68DA68FB681B6842F4806255
:103CD000DA604AE0FB68DB6A494A9A62FB68DB6AA1
:103CE000484ADA62FB68DB6A474A1A63FB68D86AAB
:103CF0007968FB681B683C331A467B88FEF74AFDEF
:103D00000346002B01D0012375E0FB681B68DA68CD
:103D1000FB681B6842F40062DA6026E0FB681B6BFC
:103D2000374A9A62FB681B6B364ADA62FB681B6B88
:103D3000354A1A63FB68186B7968FB681B68403367
:103D40001A467B88FEF726FD0346002B01D001238F
:103D500051E0FB681B68DA68FB681B6842F480521C
:103D6000DA6002E00123FB7500BFFB7D002B41D12F
:103D7000FB681B680122B968184600F0FFFDFB686C
:103D80001B68224A934207D1FB681B685A6CFB6888
:103D90001B6842F400425A64FB681B681B4A93424A
:103DA0000ED0FB681B68B3F1804F09D0FB681B681D
:103DB000174A934204D0FB681B68164A934211D1FC
:103DC000FB681B689B6803F007033B613B69062B9C
:103DD00010D0FB681B681A68FB681B6842F0010280
:103DE0001A6007E0FB681B681A68FB681B6842F0F2
:103DF00001021A60FB7D18461837BD4680BD00BF22
:103E00006D43000815440008DB420008002C014007
:103E1000000400400008004080B584B000AF786026
:103E200039600023FB733B680C2B55D801A252F874
:103E300023F000BF693E0008D93E0008D93E0008C3
:103E4000D93E0008853E0008D93E0008D93E00084A
:103E5000D93E0008A13E0008D93E0008D93E00081E
:103E6000D93E0008BD3E00087B681B68DA687B68A5
:103E70001B6822F40072DA607B685B6A1846FEF702
:103E8000E9FC2CE07B681B68DA687B681B6822F41D
:103E90008062DA607B689B6A1846FEF7DBFC1EE0F6
:103EA0007B681B68DA687B681B6822F40062DA6052
:103EB0007B68DB6A1846FEF7CDFC10E07B681B6868
:103EC000DA687B681B6822F48052DA607B681B6BBF
:103ED0001846FEF7BFFC02E00123FB7300BFFB7B2B
:103EE000002B57D17B681B6800223968184600F008
:103EF00045FD7B681B682A4A934217D17B681B6883
:103F00001A6A41F211131340002B0FD17B681B6812
:103F10001A6A40F244431340002B07D17B681B68A8
:103F20005A6C7B681B6822F400425A647B681B68E9
:103F30001A6A41F211131340002B0FD17B681B68E2
:103F40001A6A40F244431340002B07D17B681B6878
:103F50001A687B681B6822F001021A603B68002B1C
:103F600004D17B68012283F83E2013E03B68042BD8
:103F700004D17B68012283F83F200BE03B68082BCB
:103F800004D17B68012283F8402003E07B68012292
:103F900083F84120FB7B18461037BD4680BD00BF2B
:103FA000002C014080B586B000AFF860B9607A603F
:103FB0000023FB75FB6893F83C30012B01D10223F1
:103FC000AEE0FB68012283F83C207B680C2B00F2FA
:103FD0009F8001A252F823F00D4000081141000813
:103FE00011410008114100084D400008114100082E
:103FF00011410008114100088F40000811410008DC
:104000001141000811410008CF400008FB681B68FF
:10401000B968184600F094FAFB681B689A69FB6857
:104020001B6842F008029A61FB681B689A69FB688A
:104030001B6822F004029A61FB681B689969BB68DF
:104040001A69FB681B680A439A6164E0FB681B6895
:10405000B968184600F0DAFAFB681B689A69FB68D1
:104060001B6842F400629A61FB681B689A69FB68EE
:104070001B6822F480629A61FB681B689969BB68BF
:104080001B691A02FB681B680A439A6143E0FB68DC
:104090001B68B968184600F023FBFB681B68DA69E7
:1040A000FB681B6842F00802DA61FB681B68DA698A
:1040B000FB681B6822F00402DA61FB681B68D9699F
:1040C000BB681A69FB681B680A43DA6123E0FB6876
:1040D0001B68B968184600F06DFBFB681B68DA695D
:1040E000FB681B6842F40062DA61FB681B68DA69EE
:1040F000FB681B6822F48062DA61FB681B68D9697F
:10410000BB681B691A02FB681B680A43DA6102E09C
:104110000123FB7500BFFB68002283F83C20FB7D78
:1041200018461837BD4680BD80B584B000AF7860B2
:1041300039600023FB737B6893F83C30012B01D17D
:104140000223B4E07B68012283F83C207B680222D2
:1041500083F83D207B681B689B68BB60BB6823F0CD
:104160007703BB60BB6823F47F43BB607B681B683D
:10417000BA689A603B681B68B3F5005F3ED0B3F540
:10418000005F00F28780B3F5805F00F08680B3F5B2
:10419000805F7FD8702B1AD0702B7BD8602B50D0CB
:1041A000602B77D8502B3CD0502B73D8402B58D055
:1041B000402B6FD8302B64D0302B6BD8202B60D0A5
:1041C000202B67D8002B5CD0102B5AD062E07B6884
:1041D00018683B6899683B685A683B68DB6800F080
:1041E000AEFB7B681B689B68BB60BB6843F07703D2
:1041F000BB607B681B68BA689A604FE07B68186890
:104200003B6899683B685A683B68DB6800F097FB3D
:104210007B681B689A687B681B6842F480429A60DE
:104220003CE07B6818683B6859683B68DB681A4665
:1042300000F00EFB7B681B685021184600F065FB00
:104240002CE07B6818683B6859683B68DB681A4655
:1042500000F02CFB7B681B686021184600F055FBC2
:104260001CE07B6818683B6859683B68DB681A4645
:1042700000F0EEFA7B681B684021184600F045FB11
:104280000CE07B681A683B681B681946104600F012
:104290003CFB03E00123FB7300E000BF7B680122CD
:1042A00083F83D207B68002283F83C20FB7B184686
:1042B0001037BD4680BD80B483B000AF786000BFCA
:1042C0000C37BD4680BC704780B483B000AF7860C7
:1042D00000BF0C37BD4680BC704780B584B000AFCE
:1042E00078607B685B6AFB60FB685B6A7A689A420D
:1042F00007D1FB6801221A77FB68012283F83E2070
:104300002AE0FB689B6A7A689A4207D1FB6802221E
:104310001A77FB68012283F83F201DE0FB68DB6A07
:104320007A689A4207D1FB6804221A77FB68012257
:1043300083F8402010E0FB681B6B7A689A4207D133
:10434000FB6808221A77FB68012283F8412003E00A
:10435000FB68012283F83D20F868FFF7B5FFFB6892
:1043600000221A7700BF1037BD4680BD80B584B0EB
:1043700000AF78607B685B6AFB60FB685B6A7A68A9
:104380009A420BD1FB6801221A777B689B69002B4C
:1043900036D1FB68012283F83E2031E0FB689B6A3E
:1043A0007A689A420BD1FB6802221A777B689B6974
:1043B000002B25D1FB68012283F83F2020E0FB6819
:1043C000DB6A7A689A420BD1FB6804221A777B6811
:1043D0009B69002B14D1FB68012283F840200FE079
:1043E000FB681B6B7A689A420AD1FB6808221A772D
:1043F0007B689B69002B03D1FB68012283F8412075
:10440000F868FDF73FF9FB6800221A7700BF103704
:10441000BD4680BD80B584B000AF78607B685B6AC4
:10442000FB60FB685B6A7A689A4203D1FB680122F1
:104430001A7719E0FB689B6A7A689A4203D1FB6895
:1044400002221A7710E0FB68DB6A7A689A4203D18D
:10445000FB6804221A7707E0FB681B6B7A689A42B4
:1044600002D1FB6808221A77F868FFF724FFFB687F
:1044700000221A7700BF1037BD4680BD80B485B0DA
:1044800000AF786039607B681B68FB607B68294AF5
:1044900093420BD07B68B3F1804F07D07B68264AEC
:1044A000934203D07B68254A934208D1FB6823F0EE
:1044B0007003FB603B685B68FA681343FB607B68D2
:1044C0001C4A93420BD07B68B3F1804F07D07B68C6
:1044D000194A934203D07B68184A934208D1FB687B
:1044E00023F44073FB603B68DB68FA681343FB60AE
:1044F000FB6823F080023B685B691343FB607B68C9
:10450000FA681A603B689A687B68DA623B681A68E6
:104510007B689A627B68074A934203D13B681A69B9
:104520007B681A637B6801225A6100BF1437BD465D
:1045300080BC7047002C014000040040000800408F
:1045400080B487B000AF786039607B681B6A7B619C
:104550007B681B6A23F001027B681A627B685B68D8
:104560003B617B689B69FB60FB6823F07003FB6029
:10457000FB6823F00303FB603B681B68FA68134386
:10458000FB607B6923F002037B613B689B687A696F
:1045900013437B617B681C4A93420CD17B6923F0F7
:1045A00008037B613B68DB687A6913437B617B6945
:1045B00023F004037B617B68134A934211D13B696A
:1045C00023F480733B613B6923F400733B613B68D8
:1045D0005B693A6913433B613B689B693A691343E2
:1045E0003B617B683A695A607B68FA689A613B680C
:1045F0005A687B685A637B687A691A6200BF1C3705
:10460000BD4680BC704700BF002C014080B487B01D
:1046100000AF786039607B681B6A7B617B681B6ACE
:1046200023F010027B681A627B685B683B617B68E1
:104630009B69FB60FB6823F4E043FB60FB6823F4A9
:104640004073FB603B681B681B02FA681343FB6006
:104650007B6923F020037B613B689B681B017A69BF
:1046600013437B617B681D4A93420DD17B6923F024
:1046700080037B613B68DB681B017A6913437B61C4
:104680007B6923F040037B617B68144A934213D11A
:104690003B6923F480633B613B6923F400633B6126
:1046A0003B685B699B003A6913433B613B689B69CC
:1046B0009B003A6913433B617B683A695A607B68A7
:1046C000FA689A613B685A687B689A637B687A6982
:1046D0001A6200BF1C37BD4680BC7047002C0140E9
:1046E00080B487B000AF786039607B681B6A7B61FB
:1046F0007B681B6A23F480727B681A627B685B6844
:104700003B617B68DB69FB60FB6823F07003FB6047
:10471000FB6823F00303FB603B681B68FA681343E4
:10472000FB607B6923F400737B613B689B681B0221
:104730007A6913437B617B681D4A93420DD17B6983
:1047400023F400637B613B68DB681B027A691343D7
:104750007B617B6923F480637B617B68144A9342AD
:1047600013D13B6923F480533B613B6923F400532D
:104770003B613B685B691B013A6913433B613B68E2
:104780009B691B013A6913433B617B683A695A6034
:104790007B68FA68DA613B685A687B68DA637B6831
:1047A0007A691A6200BF1C37BD4680BC704700BFE3
:1047B000002C014080B487B000AF786039607B681E
:1047C0001B6A3B617B681B6A23F480527B681A6218
:1047D0007B685B687B617B68DB69FB60FB6823F45B
:1047E000E043FB60FB6823F44073FB603B681B689D
:1047F0001B02FA681343FB603B6923F400533B61DF
:104800003B689B681B033A6913433B617B680F4A13
:10481000934209D17B6923F480437B613B685B69E8
:104820009B017A6913437B617B687A695A607B6874
:10483000FA68DA613B685A687B681A647B683A698F
:104840001A6200BF1C37BD4680BC7047002C014077
:1048500080B487B000AFF860B9607A60FB681B6A0B
:104860007B61FB681B6A23F00102FB681A62FB682C
:104870009B693B613B6923F0F0033B617B681B0153
:104880003A6913433B617B6923F00A037B617A69D0
:10489000BB6813437B61FB683A699A61FB687A697C
:1048A0001A6200BF1C37BD4680BC704780B487B019
:1048B00000AFF860B9607A60FB681B6A7B61FB68D7
:1048C0001B6A23F01002FB681A62FB689B693B615C
:1048D0003B6923F470433B617B681B033A691343D4
:1048E0003B617B6923F0A0037B61BB681B017A6994
:1048F00013437B61FB683A699A61FB687A691A62C3
:1049000000BF1C37BD4680BC704780B485B000AF87
:10491000786039607B689B68FB60FB6823F07003FC
:10492000FB603A68FB68134343F00703FB607B6856
:10493000FA689A6000BF1437BD4680BC704780B4E7
:1049400087B000AFF860B9607A603B60FB689B6835
:104950007B617B6923F47F437B613B681A027B6840
:104960001A43BB6813437A6913437B61FB687A6916
:104970009A6000BF1C37BD4680BC704780B487B0CA
:1049800000AFF860B9607A60BB6803F01F030122D2
:1049900002FA03F37B61FB681A6A7B69DB431A4006
:1049A000FB681A62FB681A6ABB6803F01F03796828
:1049B00001FA03F31A43FB681A6200BF1C37BD46B5
:1049C00080BC704780B485B000AF786039607B6888
:1049D00093F83C30012B01D1022346E07B68012291
:1049E00083F83C207B68022283F83D207B681B68AB
:1049F0005B68FB607B681B689B68BB60FB6823F09F
:104A00007003FB603B681B68FA681343FB607B68BC
:104A10001B68FA685A607B681B68164A93420ED07E
:104A20007B681B68B3F1804F09D07B681B68124A12
:104A3000934204D07B681B68104A93420CD1BB6838
:104A400023F08003BB603B685B68BA681343BB60BC
:104A50007B681B68BA689A607B68012283F83D20F6
:104A60007B68002283F83C20002318461437BD469B
:104A700080BC7047002C014000040040000800404A
:104A800080B485B000AF786039600023FB607B683C
:104A900093F83C30012B01D102233DE07B680122D9
:104AA00083F83C20FB6823F0FF023B68DB6813437C
:104AB000FB60FB6823F440723B689B681343FB6018
:104AC000FB6823F480623B685B681343FB60FB6810
:104AD00023F400623B681B681343FB60FB6823F40C
:104AE00080523B681B691343FB60FB6823F4005250
:104AF0003B685B691343FB60FB6823F480423B68BF
:104B0000DB691343FB607B681B68FA685A647B6847
:104B1000002283F83C20002318461437BD4680BC91
:104B2000704703460244934200D1704703F8011BCB
:104B3000F9E7000070B500260C4D0D4C641BA41065
:104B4000A64209D101F074F800260A4D0A4C641BF4
:104B5000A410A64205D170BD55F8043B9847013614
:104B6000EEE755F8043B98470136F2E7605E00082F
:104B7000605E0008605E0008645E000830B5124A9E
:104B800021F00043934287B006DC0123002200930A
:104B9000002300F01DF806E00C4A934205DD0246B2
:104BA0000B46FBF7D9FA07B030BD02AA00F00CFAA9
:104BB000DDE90423400000F00200C0F10100009094
:104BC000DDE90201E5E700BFFB21E93FFFFFEF7FE1
:104BD0002DE9F04F8BB00093D94B21F000469E4257
:104BE00004460D4682468B46149F0292079158DC7C
:104BF000FBF704FF0546002878D17B1C2343334391
:104C000010D12046594600F0D3FB02460B46002047
:104C1000CC49FBF783FD82468B46504659460BB084
:104C2000BDE8F08F012FF8D020465946029A009B2C
:104C3000FBF794FA02460B460F460020C249FBF7E9
:104C40006DFD2E46894652465B4680462C463046D0
:104C50000D463946FBF780FA02460B46029800994A
:104C6000FBF77AFA32464B46FBF72EFC3246824679
:104C70008B464B4630463946FBF726FC0022B14BAB
:104C8000FBF76CFA02460B4650465946FBF766FAAC
:104C900042464B46FBF718FC22462B46FBF75EFAD2
:104CA000B9E7AA4B9E4221DD002906DA05F100434F
:104CB0009B46009B03F100430093524682A1D1E939
:104CC00000015B46FBF748FA04460D4680A1D1E996
:104CD0000001029A009BFBF73FFA2B462246FBF7A6
:104CE0003DFA002382468B460293009352465B4670
:104CF00050465946FBF7E8FB02460B46804689467C
:104D0000FBF7E2FB424604460D464B4650465946E9
:104D1000FBF7DAFB70A3D3E90023CDE904012046B9
:104D20002946FBF7D1FB6EA3D3E90023FBF716FA64
:104D300022462B46FBF7C8FB6BA3D3E90023FBF706
:104D40000DFA22462B46FBF7BFFB69A3D3E90023EC
:104D5000FBF704FA22462B46FBF7B6FB66A3D3E922
:104D60000023FBF7FBF922462B46FBF7ADFB64A3C0
:104D7000D3E90023FBF7F2F942464B46FBF7A4FBCD
:104D800061A3D3E90023CDE9080120462946FBF7BA
:104D90009BFB5FA3D3E90023FBF7E0F922462B46F8
:104DA000FBF792FB5CA3D3E90023FBF7D7F922467C
:104DB0002B46FBF789FB5AA3D3E90023FBF7CEF977
:104DC00022462B46FBF780FB57A3D3E90023FBF7D2
:104DD000C5F922462B46FBF777FB55A3D3E9002301
:104DE000FBF7BCF902460B46DDE90801FBF7B6F913
:104DF000DDE90423FBF768FB029A009BFBF7AEF9A1
:104E000042464B46FBF760FB029A009BFBF7A6F974
:104E100049A3D3E9002304460D46DDE90401FBF76D
:104E200053FB22462B46FBF799F90B46CDE90001CF
:104E3000024659465046FBF791F9444B04469E42C0
:104E40000D4640F385803846FBF7D4FA224680466B
:104E500089462B4620462946FBF736FB4246064646
:104E60000F464B4620462946FBF778F902460B468B
:104E700030463946FBF752FCDDE90023FBF76CF9BD
:104E800002460B4650465946FBF766F902460B466A
:104E9000FBF764F902460B4640464946FBF75CF9CE
:104EA000079B04469B1703F00203C3F101000D4664
:104EB000FBF7A0FA02460B4620462946FBF704FB07
:104EC000A9E600BFAFF30080182D4454FB21E93F51
:104ED000075C143326A6813CD47ABF74702AFB3E4B
:104EE000E9A7F0320FB8123F68108D1AF726303F4D
:104EF0001583E0FEC8DB573F93846EE9E326823FCB
:104F0000FE41B31BBAA1AB3F735360DBCB75F3BE5D
:104F1000A69237A0887E143F0165F2F2D844433F41
:104F2000280356C9226D6D3F37D60684F464963F38
:104F30007AFE10111111C13F635555555555D53F96
:104F4000FFFF2F3E0000F03F0000F0BF2794E53F39
:104F5000012F31D00F4602460B4600201849FBF7BF
:104F6000DDFB0026CDE90201DDE9024552465B4644
:104F700030463946FBF7F0F802460B46DDE9000102
:104F8000FBF7EAF832462B46FBF79EFA324682469A
:104F90008B462B4630463946FBF796FA0022094BE2
:104FA000FBF7DCF802460B4650465946FBF7D6F8AD
:104FB000DDE9022334466DE682468B462DE600BFCE
:104FC0000000F0BF0000F03F2DE9F04F1446C24A48
:104FD00021F0004A8DB09245049107DC00220023A5
:104FE000C4E90001C4E90223002524E0BB4A92453C
:104FF00072DC049BBA4D002BA9A3D3E9002336DD54
:10500000FBF7AAF8AA4506460F4618D0A6A3D3E98F
:105010000023FBF7A1F802460B463046C4E9002303
:105020003946FBF799F8A0A3D3E90023FBF794F8DE
:105030000125C4E9020128460DB0BDE8F08F9CA30C
:10504000D3E90023FBF788F89BA3D3E900230646A6
:105050000F46FBF781F802460B463046C4E90023B1
:105060003946FBF779F894A3D3E90023DEE7FBF791
:1050700075F8AA4506460F4616D08BA3D3E9002340
:10508000FBF76CF802460B463046C4E9002339466C
:10509000FBF762F884A3D3E90023FBF75FF84FF036
:1050A000FF35C4E90201C6E781A3D3E90023FBF77A
:1050B00055F881A3D3E9002306460F46FBF74EF8C7
:1050C00002460B463046C4E900233946FBF744F854
:1050D00079A3D3E90023E0E7824A924500F3D48024
:1050E00000F066F976A3D3E9002306460F46FBF7E6
:1050F000EBF900227C4BFBF731F8FBF77FFC054610
:10510000FBF778F902460B46CDE9022364A3D3E905
:105110000023FBF7D9F902460B4630463946FBF728
:105120001BF861A3D3E9002380468946DDE902012B
:10513000FBF7CAF91F2D06460F460EDC6B4B6A1EA5
:1051400053F82230534508D032463B464046494644
:10515000FBF702F8C4E9000112E03B463246404644
:105160004946FAF7F9FF4FEA2A530593C1F30A5368
:10517000C3EB1A53102B1FDC02460B46C4E9002375
:10518000D4E9002A404653464946FAF7E5FF32463D
:105190003B46FAF7E1FF0B46C4E9020104990246D7
:1051A0000029BFF648AF0AF10041C4E9011203F13A
:1051B0000043E3606D423EE73DA3D3E90023DDE910
:1051C0000201FBF781F906460F4602460B464046B0
:1051D0004946FAF7C1FF02460B4682468B464046D7
:1051E0004946FAF7B9FF32463B46FAF7B5FF32A314
:1051F000D3E9002306460F46DDE90201FBF764F917
:1052000032463B46FAF7A8FF02460B4606460F46D3
:1052100050465946FAF7A0FF059AC1F30A53D31A2C
:10522000312B06DC02460B46D046D946C4E90023A2
:10523000A6E725A3D3E90023DDE90201FBF744F942
:1052400006460F4602460B4650465946FAF784FF7B
:1052500002460B468046894650465946FAF77CFF7F
:1052600032463B46FAF778FF19A3D3E900230646F6
:105270000F46DDE90201FBF727F932463B46FAF714
:105280006BFF06460F465FE7194A924532DD02463C
:105290000B46FAF761FFC4E90201C4E90001A3E685
:1052A00000004054FB21F93F3163621A61B4D03DE4
:1052B0000000601A61B4D03D7370032E8A19A33BBD
:1052C00083C8C96D305FE43F0000002E8A19A33BFC
:1052D000C14920259A837B39FB21E93F7BD90240D4
:1052E000FB21F93FFB2139410000E03F885C0008C9
:1052F000FFFFEF7F4FEA2A55A5F21645AAEB0551AD
:105300000F460646FBF77AFBFBF774F802460B469E
:1053100030463946CDE90623FAF71EFF0022224B1C
:10532000FBF7D2F80F460646FBF768FBFBF762F87F
:1053300002460B4630463946CDE90823FAF70CFF02
:105340000022194BFBF7C0F84FF003080026002796
:10535000CDE90A010DF13009324679E902013B46F7
:10536000C24608F1FF38FBF717FB0028F4D10F4BBA
:105370002A46019302232146009306A8534600F0D3
:105380001BF8049B0546002BBFF655AED4E900215F
:1053900001F10043C4E90023D4E9022101F10043F3
:1053A000C4E9022306E700BF00007041085D000861
:1053B00021F00043194670472DE9F04FADF5197DF6
:1053C00008930691B64BA29912F1140F53F82130AD
:1053D000A8BFD41E0293089BB8BF002403F1FF337B
:1053E0000793A4BF182394FBF3F46FF0170304FB97
:1053F000033303EB020B079A029BA71A03EB020885
:10540000A39B002503EB870900220023099020AE0F
:10541000454514DD4FF00008089A20AB03EBC205A8
:105420000DF5E07A029B984535DC099B0022A3F13B
:10543000080900232F460026CDE900231FE0EF4294
:105440000BD459F82500CDE90023FAF7D3FFDDE9A5
:105450000023E6E802010135DAE710461946F8E7CD
:10546000D7E90023F9E90201FBF72EF802460B46C3
:10547000DDE90001FAF772FECDE900010136079B74
:10548000083F9E42ECDDDDE9002308F10108EAE86F
:1054900002230835C6E7029B0CAA02EB83030B9399
:1054A000A39B029E03EB84030A9398AB03EBC60312
:1054B00053E9284570AB03EBC60AD046B1460CAFA2
:1054C0000097B9F1000FA8F1080870DC5A46204691
:1054D000294600F0B1FA00224FF07F5304460D46F2
:1054E000FAF7F2FF00F024FB00226E4BFAF7ECFF14
:1054F00002460B4620462946FAF72EFE0D46044684
:10550000FBF77CFA0490FAF775FF02460B4620463B
:105510002946FAF721FEBBF1000F804689466FDD70
:10552000711E0CAB53F82130049CCBF1180043FAE8
:1055300000F2144482409B1A0CAA42F82130CBF1AD
:105540001702049413410093009B002B66DD002298
:105550006FF07F411446049B01330493964200F39D
:10556000AD80BBF1000F07DDBBF1010F00F0B5808E
:10557000BBF1020F00F0BB80009B022B4ED14246D4
:105580004B4600204849FAF7E7FD80468946002C43
:1055900044D05A460020444900F04EFA02460B46D9
:1055A00040464946FAF7D8FD8046894636E0002253
:1055B0003E4B20462946FAF787FFFBF71FFAFAF71A
:1055C00019FF02460B46CDE904230022384BFAF7B7
:1055D0007BFF02460B4620462946FAF7BDFDFBF746
:1055E0000DFA009B09F1FF3943F8040B0093DDE944
:1055F0000401D8E90023FAF7B1FD04460D4660E73F
:1056000005D1731E0CAA52F82330DB159BE700224C
:10561000284BFBF7DFF900283ED100900022002341
:1056200040464946FBF7B8F9002800F0B280741EE6
:105630002346002202998B4260DA002A75D00CAB17
:1056400053F82430ABF1180B002B00F0A0805A4621
:105650000020154900F0F0F9A24606460F464FF02B
:10566000000870ABDFF84490E50003EBC40BBAF11F
:10567000000F80F2C4802646002EC0F2F6800E4B4A
:105680004FF0000A079370AB4FF0000B4FF000088B
:1056900003EBC609A71BDCE00223009357E700BF1A
:1056A000505E0008000020400000F03F0000703E07
:1056B000000070410000E03F105E00083B6844B904
:1056C0001BB1C3F180733B6001231C4601320437D8
:1056D00044E7CB1A3B602346F7E7721E0CAB53F846
:1056E0002230C3F316030CA941F8223044E7721E9E
:1056F0000CAB53F82230C3F31503F4E70CA951F8AF
:105700002310013B0A4395E7013352F8041D002999
:10571000FAD0089A20A9B21806F1010801EBC205D7
:10572000F418444504DA2646BFE601230B9AECE759
:105730000A9B4FF0000953F82800FAF75BFE002699
:105740000027099BC5E90001083B00930495079BCE
:10575000994505DDEAE9026708F101080835E0E747
:10576000DDF810C0009909F10109F1E90223009167
:105770007CE80201CDF810C0FAF7A6FE02460B46FF
:1057800030463946FAF7EAFC06460F46DFE7013CA9
:1057900055E7CBF100024046494600F04DF90022A2
:1057A000A34B04460D46FBF715F9F8B10022A14BB7
:1057B00020462946FAF788FEFBF720F90746FAF754
:1057C00019FE00229A4BFAF77FFE0B460246294645
:1057D0002046FAF7C1FCFBF711F9741C0CAB43F837
:1057E00026000BF1180B43F8247030E720462946B9
:1057F000FBF704F90CAB344643F8260027E70CAB63
:1058000053F82A00FAF7F6FD32463B46FAF75CFEFB
:1058100042466BE802014B4630463946FAF754FEE1
:105820000AF1FF3A06460F4621E7DDF81CC0F9E809
:105830000223FCE80201CDF81CC0FAF745FE02463F
:105840000B4650465946FAF789FC82468B4608F1CA
:105850000108029B984501DCB845E6DD48AB03EB47
:10586000C707C7E900AB013E06E7A29B022B09DC94
:10587000002B32DC58D0049B03F007000DF5197D96
:10588000BDE8F08FA29B032BF5D148AB1D44AA467F
:10589000A346BBF1000F74DCAA46A346BBF1010F7F
:1058A00000F38E8000273E46012C00F3A880DDE93E
:1058B0004850DDE94A41009B002B40F0AA80034696
:1058C0002A460698C0E9002322460B46C0E9022377
:1058D0003A463346C0E90423CDE70020A0460146FE
:1058E00048AB1D44B8F1000F38DA009B002B3CD0C8
:1058F00001F1004502462B46069D0126C5E900231D
:105900000B46DDE94801FAF727FC84460F4648AD0F
:10591000B4422CDA009B0BB107F1004762463B46CC
:105920000699C1E90223A6E7A29E48AB37461D446B
:10593000002C09DA009B0BB107F1004732463B46C9
:105940000699C1E9002396E7304675E802233946F7
:10595000FAF704FC013C06460F46E9E775E8022326
:10596000FAF7FCFB08F1FF38BCE70D46C2E76046DA
:10597000F5E902233946FAF7F1FB013684460F4672
:10598000C6E7DAE900675AE9028932463B464046F3
:105990004946FAF7E3FB02460B46CDE902014046D1
:1059A0004946FAF7D9FB32463B46FAF7D7FBDDE921
:1059B00002236AE802010BF1FF3BCAE9002368E712
:1059C000DAE900895AE9026742464B4630463946D1
:1059D000FAF7C4FB02460B46CDE9020130463946D0
:1059E000FAF7BAFB42464B46FAF7B8FBDDE9022369
:1059F0006AE802010BF1FF3BCAE900234EE7384693
:105A000075E802233146FAF7A9FB013C07460E462A
:105A10004AE7069B00F1004001F1004106F1004613
:105A2000C3E90104C3E903171D605E6123E700BFFA
:105A3000000070410000703EF8B51646C1F30A52EE
:105A400004460D460B4692B921F0004303433CD077
:105A5000314B0022FAF738FD304B04469E420D468A
:105A60000FDA29A3D3E90023FAF72EFD06E040F26E
:105A7000FF77BA4209D10246FAF770FB04460D4699
:105A800023E00B46C1F30A52363A4CF250318E42B3
:105A90000EDD1FA3D3E9002305F0004444F0FC41D0
:105AA00041F45F1141F410511D4841F03C01DBE726
:105AB00040F2FE7132448A42EBDC002A08DD23F01A
:105AC000FF4323F4E00343EA025520462946F8BD8C
:105AD00012F1350F0CDA0CA3D3E9002305F00044D2
